:020000020000FC
:1006E80065182976295443514B4F2D1C471C505BE4
:1006F8001D1170586E2C6E0E706C271D326E4A3CA0
:1007080027132C2555540E550D6C601B3E54482458
:100718001D3852291F52547A7017617B1940664759
:100728003148653B344C26215C57395D67583E4D4E
:10073800415A70497B5F72791E1C5B583C734C5F51
:100748000F57701B45680D0D3C205A557027637074
:10075800677C695B60345215217367387A312D6F75
:10076800611F392D7435524B117964664275670DD6
:100778006F11225334126E327462244B1D3B504366
:100788005B56101D3A426F7230795472663675376F
:1007980062211360134B3C142C79314D184D77218D
:1007A8002E7719275F4C6614431F5931393A1D4675
:1007B800414A250D61666531700F553619360B278C
:1007C8005071527A5E5624242111704E5A411436C3
:1007D80020414C3B732C370B4D1B38251F7D2F14A4
:1007E800725764187B7E76224D44783D487C754666
:1007F8002D3B566151277E281C4E32215A5D620CD2
:100808007511431720195B0D7C51505D0E6D732EC9
:1008180030461477514D21770E7B76126640652855
:100828003A484A36116D59130A251A3252546E7CC9
:100838004B4D393B46424F751922491C42373F768A
:100848006615690A3A25100E47707775285A455D6E
:100858000C0A632C35630F382F5E54726B79561966
:100868001863476A25744362557C1F0B1C4F4C2440
:100878004E37262C2132243D2071637B7643721338
:100888005F2B6E7E5714636643735A6D6B516D19F7
:100898004A76493C193B796C450C653D7754457956
:1008A8002F5054184A11446E4565496A731E3E74A8
:1008B80013304A5A601A0E65664675510D4C7A4DCA
:1008C800697417237E783429447837487E29692249
:1008D800161F2029524F7B34757A65353712272227
:1008E8002440574D1D2D152F684F37371D1A177384
:1008F80048665A4711644B1F381C663C1A26346EEA
:100908006D207E55411A683A65623A3B1A567369FA
:100918004F1575626D4E682D52162D2B6A282F0BB8
:100928005413617D34455A7A114052265F127D4630
:100938007969164C6B1A1B221C77223C10504E58B2
:10094800440C2B683852431C6C437E411811733F8A
:100958003A7B41280C12455D1864245E69496C3065
:100968002B281F283C5C4F38344D2768202123381A
:10097800384B0C63683871505556145C500C35353B
:1009880070683E7D4F5E605F0C4D0F1D0B390B216B
:10099800345E183E4553466E7E3A35160C7117760E
:1009A800152C677C3010585E2831191D5723712784
:1009B800527544704E267B4F69670D2670692B4827
:1009C800206F2F4E3E61115D49674A3A6131415CA3
:1009D8003B5F29295F1E202E4A641C68740E5C4FF9
:1009E8000E151F3D2D360B2D5844186618111F4E35
:1009F800120B6420320D70762E2770101A75572D41
:100A08002A6A74104A6370360B3D20652F1E7429BC
:100A1800697C0B2C3443783B364F193629496C1CBA
:100A280039641D4E505B6D3D766578350D545824FC
:100A380078790F0E3A2E6114282627341515176B6E
:100A48001A1F424978675238543F3215502A4525B3
:100A5800255D196175460B340A77136529175567A3
:100A680028114B2C1A4B58117B1C72606139493381
:100A78001D130D211E67426A1955233557154B1949
:100A8800420C104A50654A0D0F25111654476470E0
:100A9800685A392270613C1F33701D7D7E79612A46
:100AA8004B5E684023143E7475110C7C397C2777A3
:100AB80054204F20666F1A7049473D4845290C2C31
:100AC8005D3F20681D697B185F2D1C7545404A579E
:100AD8001C720A5D234F5472460C143E6E246D69D5
:100AE8002E0B2A35564F2F756A6A60644D581B3B8A
:100AF8000F5379383423657B55486B543326604F40
:100B0800342B68275831281C3C31430E1620425A92
:100B1800661B3F5956744C735A6B13124C4F4C7BDF
:100B28004A0A4362711B6C185D6C3B40300A0C2406
:100B38000D32323C611A483D516037263330325D00
:100B48002E265F6031614F6B6C17711B7869537D7E
:100B58005E0C5F7E2D4A641A285C265E2F493F375B
:100B6800267E777E4B2023142E41645F3012187640
:100B780061192A747D491C5C67267E1B5D6F1C12F7
:100B8800374C243F77597A654F282A735D29763484
:100B9800636A48445D423C3B3C0E3116696A4668CC
:100BA8000F20174C4E1A611179280E3F66493A3CBE
:100BB8007B497E1E3C265977680B5E36730E2C38AF
:100BC80072431D207C1A13534065430D7017264E3F
:100BD800203C66696E2E544B675873634728671527
:100BE8004B41214972226729453A1D317C481447F7
:100BF800765B2E646A6C781246541227263916479B
:100C08006C636F313B7A646E45490A1472706453A1
:100C18003036330A323D1C0A3B4A7E7139733148FB
:100C28002A47343F422D302D277711356D7E4B0AE8
:100C38003613237951401232477E1F282E484331FC
:100C480013517C5633305065477829112D106B515C
:100C58006A735D245F3521124F1B18352571766B39
:100C680058252E4A26575F26741D210C2A1E626AB3
:100C7800224A5266510D546F334A1D2C6329596F0D
:100C8800160B4574535A5530544A395659231E7019
:100C9800113B21700B45176A1F4C5E152E5D62567D
:100CA800342945242D1C1B794964621C46767051F1
:100CB8007A191F1E38402E111F731B0D2217595DFC
:100CC8000C237E39734F103C35584B3E63417410EA
:100CD800634C647E0F511D3A6C6957533339395A46
:100CE8006B7C7D1A5027761F4B2E2D762D241F22C4
:100CF8002B5A1D505C371F1D7C253F6A4927533EE0
:100D080050742B12163226351E4A6A3B1279154F3B
:100D1800250F1D0A797E76451E2A582F660A7B15EF
:100D280034565A2E5F45361A221B197C480A216E02
:100D38002429557C33155F152420451175227D2102
:100D4800502D4C2445256B5F0A3857692F385E5261
:100D580070345D7454575F794C3173417B382C1172
:100D68001A3E5C575D150F3C10647D53191D75378D
:100D7800270F6F5960786F5917653C464652460AE7
:100D88004546403469670E6174706E4D6A6C44283C
:100D980078692E593B581C316A656B4865355D1C6E
:100DA8005B0F721A19630D54142D782A36150E5AD2
:100DB800685E637657561C3B1147354974226B6C45
:100DC8006031245A0C7B694D675A763F48744D341C
:100DD8003D630C7E11606F0F7A3B320F273A6F67C5
:100DE8003145566C3F2028122566585821295B59F1
:100DF800316B1E6D58413C3251204569103E1558E3
:100E080056771D1B514D545F1F70491A57344E2198
:100E18001934723D11303F59104E4E6E2B3F6E33D0
:100E28005C583213405C19480D6E23696D3D4717B5
:100E3800176F431C5D345F34143B614727464C1ED3
:100E48001119484E272A375E6F642D39135A625F8D
:100E5800335F3B1B0E272026277211661D53404423
:100E6800614A3332642D1274124A6C0B6A4D307722
:100E78002C27254447504D63592C4D425E380B11A1
:100E880076566B550E46123358286A3235232E4350
:100E98002F3773117517681B0D1F134B0A1B24205E
:100EA8001A5F727A5C7B322E5B3D323F153B681FBE
:100EB8001364471E1E7A0F21734A6A135941582139
:100EC800436A586B0F343F6B23513650781D5D438E
:100ED8002917742F5A3B530F1A35190F2514740B01
:100EE800375C1173454319175F7B4C123511683D08
:100EF8003946797E230E497E5D7A5C2B3714781744
:100F0800275C3C7937631E6E510C362C39425E28BB
:100F18002E746B1A6D28673F682F7631373F15623C
:100F28005A5C3A482575354A39157B1D3074612D50
:100F380075461A34523F18746E3064107824136260
:100F48004B532B562645482D614C70574C304A2B35
:100F58002E4E4328660D4C5A714D61374E0A755313
:100F680059334D66304C5F29514E58271F65760D11
:100F78003119717B56116D7E5C1956260A0C2D7C31
:100F88000C152C5A1C32710F422B20382E767D43BB
:100F98006235402B7059331E401438435B3362521C
:100FA8005579171C65162E7354237943606C3D6E72
:100FB8003C3A7E670F0B765823195F54387E21160A
:100FC8002148742733773E182A1A391D7A3426594E
:100FD8003C0F5F306A335F575F123C78751A2448BC
:100FE800724B0A7E50331A0E6030743459465E2EA6
:100FF800397C1F402B197949342953415C12267ECC
:1010080034566C5F3125290F64761D730E534C11CD
:101018007549341F585B481E46585C535B562D6211
:101028001D511D2A55367C4660707B1C170D3224D5
:10103800267A1A227D6E52393B7242671C277D1B25
:101048003E6A0B0F71593E6F5C3B7A4539530B5022
:101058004C4A7E5A1B373A4451622F5B1D0F165B70
:101068002F523B63586162377D1727554817430C49
:10107800501670136F45413E0E1B10107873763C66
:101088004E5747362317686E4F5E3C396537694CB3
:1010980025432A7846282A3B14744E4D3F364A3851
:1010A800415A223965736658151F732C48295A1CF2
:1010B8003934576D1B37717758512D7D354D741C58
:1010C8000B6C77172879541B0B513D100B5B714241
:1010D80021506B29235B125A5B7E345252503E5C7E
:1010E800333437303B2D4564234C2B1C714F24641B
:1010F80060294F4732792E603D3F595A226D6E3A2A
:101108005B2B1F34711E2D542115606048180B5A33
:10111800731F5C17772B15204473724A7B45642E26
:101128006F560A2E7C434A547E3C14793026635805
:10113800277E643E136937503865494846733F74C3
:10114800362357621F5C547911687D3C3C3F3867F1
:101158006F794A2567665C561B4C23411B1879300A
:10116800186E0B1531684016562738630E316668BD
:101178001F25630C283D63715A2D146D571C5E663C
:101188002616501B2C0C63541147675B482476477E
:101198005616520D3F4D533A312C2F661C0F1B1B10
:1011A8000B3F1D4371651C2C4D7D2D60120F317353
:1011B80061303D4E29272A5E49145A55733B392B15
:1011C800711C31683C6972632A4C230D22695329CA
:1011D80060645933106247606F35144F6E7432364D
:1011E80051732F3731156E73696715564E4D5B6F06
:1011F800114A142B520B505D1F6D712C0D2672195C
:101208006A0A4750444A2B7221736E56197E3B4F27
:101218002D5D7B132B1E18637A742E51432A732B72
:101228007C690F436B333835653C2146434E5E334A
:101238005D215A4361717C3717260F6F0B292A5E8F
:101248007E587B4C694E722C5F13367E664044197B
:101258001747396C321527573C153E0D7E1E3C72D8
:1012680051397A37774E5073623B57327A507A1534
:101278007B4F382F58573F796B29301566686422A1
:101288003E0A1B18693C2D6C3227760E1129721AFA
:101298006B6A3A35445B5868660D6376746F6F43C2
:1012A8001473412F563A6C76225B0E2E140B6B2961
:1012B8007E327E2D596837276D76697A0C3F414515
:1012C80053562A505622750C2742290D542A212B91
:1012D80029473516691A6547176F6D30747E42695C
:1012E8005A666315707146682B38533719113D2BB0
:1012F80053105E496A300F4A756A534A5B17157076
:101308006A34280C2F5F29474E5417706F6E113CB2
:101318002A194E703E66501022230C4B5D37186711
:1013280032536850247218684A513638286F260A92
:10133800353D22430E4D190D3E7C712B26705556B6
:1013480051596723497C411820682F6C59257B49DE
:1013580030397C0F304456645C4B273A28504B5E3A
:1013680068565B39535113254217675E616D6A529F
:10137800497B386A6D6C7642732D60541E53284E33
:101388004C6F40323E4C66650D11781B1D39124A70
:101398006171460C366B23476C726E605B461A3C73
:1013A8005F0F0F430E2B795F7E7E1F5F75204A1FEC
:1013B8007A19606D717060646324114A0A357E4839
:1013C800644C562530450D69433E4D3E4E0A135F29
:1013D800644A406626183C3061665255790F4B5274
:1013E80029305C1E4461602E2E18526B52560B2316
:1013F8005D3261514959315B7D371C5B171E3C30AA
:10140800411A78302A3A4775721B4E6420730D6969
:101418004939592318785465495B2F4863393A1676
:10142800653E6B4D483F3478211F266F250F4821B4
:101438007E1F2C517C0D3855685E7D2B3A574A1516
:101448005D34655B6E4757296C6D5350361E2E12FE
:10145800246C4827577B557A694B703D6369372858
:1014680015776B543C250C21650E0F463A45121E24
:1014780067127158236D104B5A0A6F203B79281F49
:101488003B34170C45726C68166265101F431E7D4D
:101498007C281F0A1026691F35442A30344B1B5DEF
:1014A8002B212337686D7A7727394E64245C5810CE
:1014B8002A5B151561554C18384D5B101254467946
:1014C8004C2A44375F2C31653756495B30685110D8
:1014D8003B3F426963284977316D5171342F2B6B3B
:1014E8006D167979653E79533B5162602C244E29FB
:1014F80074134F4A4B2C2D77243D504715362A5CE0
:101508005D792C402B41521B3450544A7A2F79650F
:1015180055104A391E592F6E391E6F5F72470B0FCF
:101528001C66214D59732B47412A733A21221B2CE3
:101538006D21526A421B20115C447C2D1048724672
:1015480018133C1659204B0A35132A59394C495B54
:1015580035403E6351794B163316690E2C38480CCA
:10156800372155131927741B374A590C69704420C1
:101578005425300D5A3E6057210E79650D124621CB
:1015880010476B70116B566038676E4923353333DB
:10159800255B232E361629630E5123607075182299
:1015A8004228343C257A4F65511C3F6461284478B1
:1015B8006F3E2733420F122E76642F200D5B566F35
:1015C8004A5A5F3645484E5F2341277A4E0E1B150F
:1015D8001E2D64596D2B2356276F1B7E14604E7287
:1015E80064421B577611306A262C7D441C1E0F302E
:1015F8004B7D327067235C22461A2B154B3054689A
:101608002714603270107771196F6E7C4553537EC2
:1016180066794765701F32104F143C3D26401C68A0
:1016280057194865155F607B472B546B0C332A1F8D
:10163800247970124C336C1D337C126B4C101D0EC8
:1016480060234A6D483F4944595A50643D4F1C79BC
:1016580070672228503A1B12231370664A2D2C6D8E
:10166800414B0C312C470D5F7A450F22452C486BB6
:10167800704F3B157668510C2325314373512C5D0F
:10168800142E1632644A1743747C21644C132F6D50
:10169800453044143F1F5871133951110B32181B30
:1016A800561A756060157A585D67542D5961773BF5
:1016B800154A7755506F6911132A5D166F514310FB
:1016C800762F492E7A3A6D43783B7A0E2361402A69
:1016D800533F67364B3320765D7D10417B1F413782
:040000000C942A0032
:100050000C9413010FEF0DBF01E20EBF0FEF00BBB9
:1000600001B9002701BB02B908E323D132D17FD106
:1000700008E31FD12ED172D108E31BD12AD108E3A6
:1000800018D127D108E015D124D101E012D121D116
:1000900006E00FD11ED10EE00CD11BD140EF4093F2
:1000A0000A014FEF47B948B94FEF4DB94EB9552442
:1000B00066247724DD24CC248824992441E0942EDE
:1000C000442740939B0040E040939A0041E04093D6
:1000D000910041E24093900062D14FEF48B958D16E
:1000E00057D1442748B954D153D14FEF48B950D1D3
:1000F0004FD1442748B94CD14BD101E0DAD0E9D0F7
:1001000096D1E8EEF6E0E150F0403FEE11271430D2
:10011000E1F330930B014FEF4A95F1F7409109015C
:100120004F704F3059F021E00027043039F0542F40
:10013000522341F00395220F0C949500330F139531
:100140000C948700133081F0033091F0402F440F5E
:10015000400F410F4F5C1CD140535AE0659E602C0C
:10016000640E405D0C94D20041E4400F0C94D20028
:10017000103029F0113071F043E20C94D2004AE2C1
:1001800007D1562C662401E094D0A3D058B893D15F
:100190000C94850040E3FCD040535AE0659E602CEF
:1001A000640E405D433239F0042F8AD092D0405320
:1001B00048B9EED0AACF01E07CD08BD0C0D168B8CE
:1001C000489B01C0FDCFE4D0489B16C04427409314
:1001D0009B004FEF40939A0041E04093910041E231
:1001E0004093900040E04093800044E040938100C1
:1001F00041E040936F00E7CF40E04093800040E053
:100200004093810041E040936F00442740939B005E
:1002100040E040939A0041E04093910041E24093D6
:10022000900006D2FFCFC394851409F019F49614F8
:1002300029F101F441E4C4165CF440E0D41609F05D
:1002400019F48394319616C08A94E150F04012C09C
:100250004427D41609F019F441E0D42E03C040E03D
:10026000D42E00C0CC2441E0C42E9394FF96319646
:10027000319600D0B490AB2CBAD118954FEF48B955
:10028000442740939B0040E440939A0041E0409310
:10029000910041E24093900006D240E040938000FC
:1002A00040E04093810041E040936F000C9458017E
:1002B000FFCF01BB53D0169A51D016984FD0089556
:1002C00001BB179A4BD0169A49D0169847D0179869
:1002D00008950F93002700BB01BB159A3FD0169AD3
:1002E0003DD00FB1169807FDF9CF15980FEF00BB61
:1002F0000F9108950F931F932F933F935F930B2DAF
:10030000112722273327043620F0139504560C9426
:1003100083010A3018F023950A50FBCF013018F002
:1003200033950150FBCF512F503021F0505D052FF8
:10033000C7DFCFDF203011F4103029F0522F505D8D
:10034000052FBEDFC6DF532F505D052FB9DFC1DF9C
:100350005F917F916F915F914F9108958F939F93DC
:100360009FE08CE90197F1F79F918F910895F6DF57
:10037000F5DFF4DFF3DFF2DF0895F9DFF8DFF7DF11
:10038000F6DFF5DFF4DFF3DFF2DFF1DFF0DF089512
:10039000F4DFF3DFF2DFF1DFF0DFEFDF089547E5B1
:1003A000042F8EDF96DF45E6042F8ADF92DF4CE6CE
:1003B000042F86DF8EDF43E6042F82DF8ADF4FE6DD
:1003C000042F7EDF86DF4DE6042F7ADF82DF45E6ED
:1003D000042F76DF7EDF41E2042F72DF7ADF00EC4C
:1003E00068DF77DF45E4042F6BDF73DF4EE6042F11
:1003F00067DF6FDF44E7042F63DF6BDF45E6042F21
:100400005FDF67DF42E7042F5BDF63DF4AE3042F30
:1004100057DF5FDF48E5042F53DF5BDF46E2042F41
:100420004FDF57DF49E5042F4BDF53DF089545E4E5
:10043000042F46DF4EDF4EE6042F42DF4ADF44E75B
:10044000042F3EDF46DF45E6042F3ADF42DF42E776
:10045000042F36DF3EDF40E2042F32DF3ADF48E58B
:10046000042F2EDF36DF40E2042F2ADF32DF48E29E
:10047000042F26DF2EDF41E3042F22DF2ADF4DE2A7
:10048000042F1EDF26DF46E3042F1ADF22DF44E3BA
:10049000042F16DF1EDF49E2042F12DF1ADF00EC03
:1004A00008DF17DF48E5042F0BDF13DF4DE3042FD0
:1004B00007DF0FDF089545E4042F02DF0ADF4EE671
:1004C000042FFEDE06DF44E7042FFADE02DF45E6F6
:1004D000042FF6DEFEDE42E7042FF2DEFADE40E213
:1004E000042FEEDEF6DE49E5042FEADEF2DE40E21E
:1004F000042FE6DEEEDE48E2042FE2DEEADE41E330
:10050000042FDEDEE6DE4DE2042FDADEE2DE46E335
:10051000042FD6DEDEDE44E3042FD2DEDADE49E24B
:10052000042FCEDED6DE00ECC4DED3DE49E5042F98
:10053000C7DECFDE4DE3042FC3DECBDE089540E5FA
:10054000042FBEDEC6DE45E7042FBADEC2DE43E777
:10055000042FB6DEBEDE48E6042FB2DEBADE40E28D
:10056000042FAEDEB6DE42E4042FAADEB2DE45E79B
:10057000042FA6DEAEDE44E7042FA2DEAADE44E7A7
:10058000042F9EDEA6DE4FE6042F9ADEA2DE4EE6A4
:10059000042F96DE9EDE00EC8CDE9BDE44E5042F0D
:1005A0008FDE97DE4FE6042F8BDE93DE40E2042FD2
:1005B00087DE8FDE43E5042F83DE8BDE44E7042FE6
:1005C0007FDE87DE41E6042F7BDE83DE42E7042FF9
:1005D00077DE7FDE44E7042F73DE7BDE40E2042F0C
:1005E0006FDE77DE47E4042F6BDE73DE089501E0F3
:1005F00060DE6FDE48E2042F63DE6BDEB82C7ADE4D
:100600004CE2042F5DDE65DEB92C74DE4CE2042F73
:1006100057DE5FDEBA2C6EDE49E2042F51DE59DE72
:1006200000EC47DE56DE43E5042F4ADE52DE089535
:1006300001E03FDE4EDE43E5042F42DE4ADE45E6C2
:10064000042F3EDE46DE41E6042F3ADE42DE42E77C
:10065000042F36DE3EDE43E6042F32DE3ADE48E685
:10066000042F2EDE36DE40E2042F2ADE32DE41E4A5
:10067000042F26DE2EDE42E6042F22DE2ADE4FE69F
:10068000042F1EDE26DE42E7042F1ADE22DE44E7B8
:10069000042F16DE1EDE00EC0CDE1BDE41E4042F10
:1006A0000FDE17DE089501E004DE13DE48E2042FBA
:1006B00007DE0FDEB82C1EDE4CE2042F01DE09DE61
:1006C000B92C18DE4CE2042FFBDD03DEBA2C12DE5F
:1006D00049E2042FF5DDFDDD00ECEBDDFADD46E45B
:0806E000042FEEDDF6DD0895A4
:00000001FF
