:020000020000FC
:100608000A0B0C0D0E000F101112130014151617FB
:0E0618001800191A1B1C1D001E1F2021220095
:040000000C942A0032
:100050000C940E010FEF0DBF01E20EBF0FEF00BBBE
:1000600001B9002701BB02B908E317D126D173D12A
:1000700008E313D122D166D108E30FD11ED108E3E2
:100080000CD11BD108E009D118D101E006D115D15E
:1000900006E003D112D10EE000D10FD140EF409322
:1000A0000A014FEF47B948B94FEF4DB94EB9552442
:1000B000662488249924442740939B0040E0409381
:1000C0009A0041E04093910041E2409390005BD15F
:1000D0004FEF48B951D150D1442748B94DD14CD1F7
:1000E0004FEF48B949D148D1442748B945D144D107
:1000F00001E0D3D0E2D08FD1E8E0F6E07724DD2430
:100100003FEE11271430E1F330930B014FEF4A9586
:10011000F1F7409109014F704F3059F021E000276D
:10012000043039F0542F522341F00395220F0C94E0
:100130009000330F13950C948200133081F003303C
:1001400091F0402F440F400F410F4F5C15D14053A9
:100150005AE0659E602C640E405D0C94CD0041E435
:10016000400F0C94CD00103029F0113071F043E2B3
:100170000C94CD004AE200D1562C662401E08DD0CB
:100180009CD058B88CD10C94800040E3F5D04053FB
:100190005AE0659E602C640E405D433239F0042FB6
:1001A00083D08BD0405348B9E7D0AACF01E075D0B7
:1001B00084D0B9D168B8489B01C0FDCFDDD0489B41
:1001C00016C0442740939B004FEF40939A0041E0B4
:1001D0004093910041E24093900040E040938000C2
:1001E00044E04093810041E040936F00E7CF442713
:1001F00040939B0040E040939A0041E0409391007F
:1002000041E24093900001E048D057D000EC45D047
:1002100054D041E4042F48D050D0FFCFC39485146C
:1002200009F019F4961419F101F445E0C4165CF4D0
:1002300040E0D41609F019F48394319614C08A94DE
:10024000E150F04010C04427D41609F021F4839403
:1002500041E0D42E04C08A9440E0D42E00C0CC24C7
:100260009394359600D0B490AB2CADD118954FEF48
:1002700048B901E012D021D046E4042F15D01DD09A
:10028000442740939B0040E440939A0041E0409310
:10029000910041E240939000FFCF01BB53D0169AEA
:1002A00051D016984FD0089501BB179A4BD0169A8B
:1002B00049D0169847D0179808950F93002700BB90
:1002C00001BB159A3FD0169A3DD00FB1169807FD85
:1002D000F9CF15980FEF00BB0F9108950F931F935F
:1002E0002F933F935F930B2D11272227332704363B
:1002F00020F0139504560C9477010A3018F02395DA
:100300000A50FBCF013018F033950150FBCF512F2D
:10031000503021F0505D052FC7DFCFDF203011F4C2
:10032000103029F0522F505D052FBEDFC6DF532F4E
:10033000505D052FB9DFC1DF5F917F916F915F91B4
:100340004F9108958F939F939FE08CE90197F1F768
:100350009F918F910895F6DFF5DFF4DFF3DFF2DF91
:100360000895F9DFF8DFF7DFF6DFF5DFF4DFF3DF1D
:10037000F2DFF1DFF0DF0895F4DFF3DFF2DFF1DF2A
:10038000F0DFEFDF089547E5042F8EDF96DF45E6C7
:10039000042F8ADF92DF4CE6042F86DF8EDF43E6F0
:1003A000042F82DF8ADF4FE6042F7EDF86DF4DE6F3
:1003B000042F7ADF82DF45E6042F76DF7EDF41E21D
:1003C000042F72DF7ADF00EC68DF77DF45E4042F6B
:1003D0006BDF73DF4EE6042F67DF6FDF44E7042F28
:1003E00063DF6BDF45E6042F5FDF67DF42E7042F43
:1003F0005BDF63DF4AE3042F57DF5FDF48E5042F4D
:1004000053DF5BDF46E2042F4FDF57DF49E5042F60
:100410004BDF53DF089545E4042F46DF4EDF4EE601
:10042000042F42DF4ADF44E7042F3EDF46DF45E684
:10043000042F3ADF42DF42E7042F36DF3EDF40E29F
:10044000042F32DF3ADF48E5042F2EDF36DF40E2AB
:10045000042F2ADF32DF48E2042F26DF2EDF40E3BD
:10046000042F22DF2ADF4DE2042F1EDF26DF46E3C2
:10047000042F1ADF22DF44E3042F16DF1EDF49E2D8
:10048000042F12DF1ADF00EC08DF17DF48E5042F26
:100490000BDF13DF4DE3042F07DF0FDF089545E483
:1004A000042F02DF0ADF4EE6042FFEDE06DF44E7FC
:1004B000042FFADE02DF45E6042FF6DEFEDE42E719
:1004C000042FF2DEFADE40E2042FEEDEF6DE49E52E
:1004D000042FEADEF2DE40E2042FE6DEEEDE48E242
:1004E000042FE2DEEADE40E3042FDEDEE6DE4DE24C
:1004F000042FDADEE2DE46E3042FD6DEDEDE44E35E
:10050000042FD2DEDADE49E2042FCEDED6DE00ECA6
:10051000C4DED3DE49E5042FC7DECFDE4DE3042F72
:10052000C3DECBDE089540E5042FBEDEC6DE45E720
:10053000042FBADEC2DE43E7042FB6DEBEDE48E695
:10054000042FB2DEBADE40E2042FAEDEB6DE42E4B5
:10055000042FAADEB2DE45E7042FA6DEAEDE44E7B6
:10056000042FA2DEAADE44E7042F9EDEA6DE4FE6BD
:10057000042F9ADEA2DE4EE6042F96DE9EDE00EC0D
:100580008CDE9BDE44E5042F8FDE97DE4FE6042FE2
:100590008BDE93DE40E2042F87DE8FDE43E5042FFF
:1005A00083DE8BDE44E7042F7FDE87DE41E6042F07
:1005B0007BDE83DE42E7042F77DE7FDE44E7042F15
:1005C00073DE7BDE089501E068DE77DE48E2042F0B
:1005D0006BDE73DEB82C82DE4CE2042F65DE6DDE4E
:1005E000B92C7CDE4CE2042F5FDE67DEBA2C76DEAF
:1005F00049E2042F59DE61DE00EC4FDE5EDE43E5AA
:08060000042F52DE5ADE1895AA
:00000001FF
